:400000000080002011000000590E0000590E000008B5044B1A6803F53F5302331A6000F035FF00BFFA46004010B5054C237833B9044B13B10448AFF300800123237010BD75
:40004000C081FF1F00000000E44D0000084B10B51BB108480849AFF300800848036803B910BD074B002BFBD0BDE81040184700BF00000000E44D0000C481FF1F0881FF1F6F
:400080000000000008B562B601F044F901F00CFC01F0F0FAFA2001F0A5F800F011FE00F019FA0648064900F05BFA0120054900F065FBFA2001F096F8F7E700BFE84D0000B3
:4000C000F04D0000004E000008B502F05EFB00B1012008BD10B5174C204600214FF4B47202F007FB052001F07DF80122124B1A701248134903F0C2F90146124B186020464F
:4001000002F033FB11E000200D4903F0B7F901460C4B1860084B1878421C1A70C0EB00108000044B184402F020FB064B1B68002BE9D110BD7083FF1FC482FF1FD884FF1F4C
:40014000104E0000B882FF1F70B505462E480021782202F0CEFA052001F044F8002D30D12A4E2B48314603F089F92A4C20600020314603F083F901462060234C204602F08D
:40018000F4FA2046244903F079F9244B18600122234B1A7011E000EB800080001F4C1A4B1844216802F0E1FA00201B4903F066F920601B4A137801331370194B187805289B
:4001C000E9D9012D1FD11248134903F057F9134B18600022124B1A7011E000EB800080000E4C094B1844216802F0BFFA00200A4903F044F920600A4A137801331370084B21
:4002000018780528E9D970BD4082FF1F144E00007083FF1FC082FF1F184E0000FC81FF1FC482FF1F10B50446134802F0A6FAC0B2E0B111490B46002203F8012B4A70013319
:4002400003F8012B03F8012B03F8012B03F8012B03F8012B03F8012B03F8012B03F8012B03F8012B1A700A2000F0BCFF0248214602F07BFA10BD00BF7085FF1F10B50446FA
:40028000084802F07AFAC0B238B106480021322202F02FFA0A2000F0A5FF0248214602F064FA10BD0482FF1F70B506460D4601F019F901F0ABF801F035FA96241948002168
:4002C000224602F016FA0A2000F08CFF16480021224602F00EFA0A2000F084FF7EB11148124902F042FA1DB10E48114902F02EFA0C4801F0E5F80F4801F0E2F870BD85B121
:40030000084C20460A4902F030FA204601F0D8F8204601F0F5F9084801F0F2F91A2001F097F870BDC882FF1FD884FF1F7085FF1F0482FF1F1C4E0000104E000010B50022CD
:400340000A4B1A700CE000F0F3FF094C207001F09FF9064A1378591C11702178054AD15401F026F80028EED110BD00BFC482FF1F0082FF1FD884FF1F38B502460D46104CA0
:400380002046104902F0BEF90F48FFF74BFF2046FFF774FF01200146FFF786FF322000F021FFFFF7CBFF2846FFF768FF00200121FFF77AFF322000F015FFFFF7BFFF38BDEF
:4003C000BC82FF1F204E0000244E000038B505460C461648FFF726FF2846FFF74FFF01200146FFF761FF322000F0FCFEFFF7A6FF2046FFF743FF00200121FFF755FF3220FB
:4004000000F0F0FEFFF79AFF01F000F800F0D0FF0028FBD006480021962202F06AF90A2000F0E0FEFFF78AFF38BD00BF484E0000D884FF1F10B51C4801F062F91B48FFF72F
:40044000F1FE1B48FFF71AFF01200146FFF72CFF322000F0C7FEFFF771FFFFF73BFE15481549FFF731FEE8B9144800F0D7F90120FFF76AFE124C2046124902F076F92046F4
:400480001149FFF7A3FF1148FFF7CCFE1048FFF7F5FE01200146FFF707FF322000F0A2FEFFF74CFF10BD00BF544E0000744E0000804E00007083FF1F904E0000AC83FF1F6F
:4004C0006083FF1F6882FF1F944E0000A44E0000B04E000008B51A48FFF7A4FE01200021FFF7E2FE322000F07DFEFFF727FF1548FFF798FE01200021FFF7D6FE322000F042
:4005000071FEFFF71BFF10481049FFF7DDFD20B90D480F49FFF7D8FD10B10E4801F0F0F80D48FFF77FFE0D48FFF7A8FE01200146FFF7BAFE322000F055FEFFF7FFFE08BD5E
:40054000B44E0000BC4E0000D884FF1FC84E0000CC4E0000D04E0000EC4E0000F84E000030B589B06B4B586019606B48FFF75AFE01200021FFF798FE322000F033FEFFF7EA
:40058000DDFEFFF7A7FD00242CE0C4EB04139B0062481844624902F0F8F808BB614D28466149621C02F0AEF86048FFF73BFE2846FFF764FE01200146FFF776FE322000F052
:4005C00011FEFFF7BBFE5A485A49FFF77DFD38B1684659492A4602F095F8684601F090F80134E4B2052CD0D95448FFF71BFE01200021FFF759FE322000F0F4FDFFF79EFE95
:400600004B484F49FFF760FD28B34E48FFF70AFE4D48FFF733FE01200146FFF745FE322000F0E0FDFFF78AFE00F0F0FE474801F067F800F0BDFE0028FBD03D48002196221A
:4006400002F057F80A2000F0CDFDFFF777FE404801F056F807E036483B49FFF735FD10B13C4801F04DF8012000F0BCFD3A48FFF7D9FD3A48FFF702FE264D394C20466968D8
:4006800002F064F8204602F078F8364B1B8823522046296802F05AF8204602F06EF801460219314B1868085199889B799180937101200146FFF7F8FD322000F093FDFFF776
:4006C0003DFE00F0A3FE294801F01AF800F070FE0028FBD0164C20460021962202F009F80A2000F07FFDFFF729FE2046114902F04CF818B11E4801F003F808E00C481D496F
:4007000002F043F818B11C4800F0FAFFFEE709B030BD00BF3882FF1FFC4E00007083FF1F044F0000BC82FF1F204E0000084F0000D884FF1F904E0000104F0000344F00004B
:40074000404F0000444F0000504F0000544F0000704F00007C4F00009C4F0000A44F00000482FF1F184E0000AC4F0000B44F0000D84F0000F44F0000FC4F000038B50546B8
:400780000C46FFF757FE28462146FFF7F5FD38BD38B51C4D284601F070FF0446A5F13200194901F0F2FF50B105F1320001F065FF0146E0B24FF4FA72022300F0C5F913483C
:4007C000134901F0E2FF60B1124801F053FFE5B201F07CFD014628464FF4FA72022300F043FA0A480C4901F0D0FF48B1094801F044FF0146E0B24FF4FA72022300F09AFA50
:4008000038BD00BFE085FF1F18500000AE85FF1F245000001286FF1F3050000070B50546164C20460021C82201F063FF052000F0D9FC2846124902F021FE054620462946A4
:4008400001F093FF01260EE000200D4902F016FE0546741CE4B2094B322000FB0630294601F083FF2646002DEED10448054901F08CFF08B1FFF78CFF70BD00BF7C85FF1F87
:400880003C5000004050000008B501F089F801F019F808BD30B40D4B1A780D4B1B785A400C4B1B7853400C4A1370002306E0C55C094C22786A4022700133DBB28B42F6D3D1
:4008C000054B187800F0FE0030BC70474886FF1F4A86FF1F7085FF1FDA86FF1FC04300F0FE00704738B505460C46FFF7CDFF2846214601F041F8012000F074FC38BD00BFF4
:400900002DE9F041DFF884800A2388F80030184F3870184E03213170174C34232370012363706023A370154B19702046FFF7B2FF0546134B1870FFF7D1FF124B1870124B75
:40094000FF221A705A7098F8001099703A78DA7032781A715D7198712278DA7162781A72A2785A721846FFF7BDFFBDE8F08100BF4A86FF1F7085FF1F8886FF1F4986FF1F21
:40098000A686FF1FDB86FF1F4C86FF1F4886FF1F2DE9F041DFF884800A2388F80030184FFE233B70174E03213170174C3423237001236370A070154B19702046FFF76AFF34
:4009C0000546134B1870FFF789FF124B1870124BFF221A705A7098F8001099703A78DA7032781A715D7198712278DA7162781A72A2785A721846FFF775FFBDE8F08100BF12
:400A00004A86FF1F7085FF1F8886FF1F4986FF1FA686FF1FDB86FF1F4C86FF1F4886FF1F2DE9F041DFF88C800B2388F800301A4F38701A4E03233370194C3023237002233D
:400A400063700023A370E3700421164B19702046FFF720FF0546144B1870FFF73FFF134B1870134BFF221A705A7098F8001099703A78DA7032781A715D7198712278DA71DB
:400A800062781A72A2785A72E2789A721846FFF729FFBDE8F08100BF4A86FF1F7085FF1F8886FF1F4986FF1FA686FF1FDB86FF1F4C86FF1F4886FF1F2DE9F041DFF8848052
:400AC0000A2388F80030184F3870184E03233370174C3522227001226270A170154A137020461946FFF7D6FE0546134B1870FFF7F5FE124B1870124BFF221A705A7098F8B7
:400B0000001099703A78DA7032781A715D7198712278DA7162781A72A2785A721846FFF7E1FEBDE8F08100BF4A86FF1F7085FF1F8886FF1F4986FF1FA686FF1FDB86FF1F78
:400B40004C86FF1F4886FF1F2DE9F84F0D46B1F5806F70D2064640F628318A426BD8C5F3072A022B08D0042B0BD0012B0ED04FF0000B5B4659460DE04FF0000B5B460121A2
:400B800008E04FF0010B0023194603E04FF0000B0123594603EB410303EB8B0B4FEA8B0B104601F09DFC01F003F94FF06632234B01F07CFA01F062FB214F3860DFF89C9039
:400BC0000C2389F80030DFF89880062388F800301C4C257084F801A084F802B0E6701A4D704028700421194B19702046FFF752FE8246174B1870FFF771FE164B18702E70A4
:400C0000154BFF221A705A7099F800109970DE7098F800201A7183F805A098713A68DA7122781A7262785A72A2789A72E278DA721846FFF757FEBDE8F88F00BF6666264038
:400C40004486FF1F8886FF1F4A86FF1F4986FF1FA686FF1FDB86FF1F4C86FF1F4886FF1F7085FF1F00000000F8B507460C4616461D460846104901F0F3FCA8B920460F491C
:400C800001F0D0FC80B9204601F092F808A3D3E9002301F00BFA01F0F1FA00F50071384632462B46FFF750FFF8BD00BFAFF30080CDCCCCCCCCCCD43F00002043000020C337
:400CC00010B50024194B1C70194B1C70642000F089FAFE20FFF7A4FE0A2000F083FA0120FFF756FE0A2000F07DFAFE20FFF708FE0A2000F077FAFE2000214FF47A720423B1
:400D0000FFF7B2FF4FF4966000F06CFAFE200121FFF7D2FE642000F065FAFE202146FFF7CBFE4FF4FA7000F05DFA10BD4B86FF1F4986FF1F2DE9F84F0D4601F2FF3440F2BB
:400D4000FE718C4272D8064640F628318A426DD8002D02DA6D4245F48045C5F3072A022B07D0042B0AD0012B0CD000210B468B460BE000210B464FF0010B06E00121002336
:400D80009B4602E0002101238B469B00023303EBCB0303EB011B104601F0A2FB01F008F84FF06632224B01F081F901F067FA214F3860DFF89C900C2389F80030DFF8948018
:400DC000062388F800301C4C257084F801A084F802B0E670194D704028700421184B19702046FFF757FD8246164B1870FFF776FD154B18702E70154BFF221A705A7099F807
:400E000000109970DE7098F800201A7183F805A098713A68DA7122781A7262785A72A2789A72E278DA721846FFF75CFDBDE8F88F666626404486FF1F8886FF1F4A86FF1F55
:400E40004986FF1FA686FF1FDB86FF1F4C86FF1F4886FF1F7085FF1FFEE700BF08B5094B1A681044084BC31A802B02DC054B186005E001F007FC0C2303604FF0FF32104690
:400E800008BD00BF0C81FF1F6888FF1F08B5104E104D16E029686B68AC68002204E051F8040B43F8040B0432A242F8D1E868002203E0002143F8041B04328242F9D11035AB
:400EC000013E002EE6D101F0E3FBFFF7DBF8FEE7010000005453000008B5124A124B1A60124A136843F40073136000230AE0032B03D80F4A52F8231000E00E490E4A42F810
:400F0000231001332F2BF2D90C4B1A780C4B1A70094A0C4B1A6000F0BDF800220A4B1A6008BD00BF0004FA050CED00E014ED00E000000000590E00000080FF1FBC760040E9
:400F40000481FF1F08ED00E00081FF1FFEE700BFF0B40022174611E050F82760F3B226F0FF0608E001EB420511F812406D78A5550132013BDBB2002BF4D101371D2FEBD98A
:400F8000F0BC7047084B1B78DBB203F00701074A11701B09013213703022054B1A70442203F2A9631A707047CF0100496E580040CD51004008B50A46002101F09AFB08BDEA
:400FC00038B51925274B1D801823274A1370023215800232137002321580023213700222224B1A7008224FF040231A70032103F5007319701E4B1B78DBB21E490B701E4B2B
:401000001A8041F25122023B1A8000240CE01B4B1B7803F0010343EA440404F003044FF4F07000F0CDF8013D0DB1032CEFD115B90320FFF78BFF124B4FF480721A80072220
:401040001A7000220F490A704820023108701A700222033B1A700C4A137843F00703137038BD00BF80400040824000400043004008010049A14600402242004025420040CB
:401080000440004006400040A243004008B501F025FB08BD38B572B6384A137843F00403137000240CE0364963001A1952000A4423445B00C8589188FFF77CFF0134E4B293
:4010C000092CF0D9002410E02D49A3001A1952000A4452F83C0F23445B000B445168B3F84420FFF7D3FF0134E4B2012CECD94FF090402449FFF72CFF234A137843F0020332
:4011000013701032137843F0020313701F4C237843F040032370A2F58632513A137843F0100313701A481B490A22FFF7AFFF1A481A490522FFF7AAFF19481A490A22FFF760
:40114000A5FF194819490A22FFF7A0FF184A137843F008031370174D61232B70FFF730FF81232B700122144B1A70FFF70BFF134821460E22FFF78AFF38BD00BFE846004013
:40118000445000007800004803500140A0430040C0510040F4070048CB5100400008004810510040080800482051004014080048224300400048004004000840B04300402A
:4011C0000230800803D000BF01380046FCD17047EFF3108072B6704780F31088704700BF01BE704710B5044605E0084B1868FFF7E7FFA4F50044B4F5004FF6D8034B586804
:4012000000FB04F0FFF7DCFF10BD00BF1081FF1F70B504460E46074B1D681F2802D90020FFF7DEFF04F01F04103455F8240045F8246070BD08ED00E038B504460D460729BB
:4012400002D90020FFF7CCFF1F2C02D90020FFF7C7FF04F01F0000F1604000F564406D01EDB2057038BD00BF08B502201049FFF7CFFF02200721FFF7DFFF00220D4B1A701F
:4012800072220D4B1A702022013B1A7003200B49FFF7BEFF03200721FFF7CEFF0622084B1A70472210331A70022253331A7008BD25150000DC81FF1F8C640040B915000091
:4012C0002865004010B5FFF783FF04460D4A137843F020031370013A137843F010031370094A0423136009490B7843F010030B70082307490B60136000F060FA2046FFF7CE
:401300006BFF10BD9C64004000E100E09B65004080E200E008B5054B5B7823B9FFF7A4FF0122024B5A70FFF7CDFF08BDDC81FF1F0422194B1A60194A9378DBB2D178C9B29F
:40134000127912F0FF0F01D18B4211D0144AD05CC0B20133DBB2952B00D900230F4A9370137913F0FF0F13D000220C4B1A710FE00C4B1B78DBB213F0200F06D00A4A1078AF
:40138000C0B213F01E0F02D102E0002000E000200422064B1A60704780E100E0DC81FF1FDC86FF1F6B6400404C64004000E100E00422134B1A60134A9378D278DBB2934200
:4013C00006D1104B1B7913F0FF0F14D0962013E00C4A9378D278DBB2934205D2094AD3789078181AC0B207E0064AD3789078181A6A38C0B200E000200422034B1A607047E6
:4014000080E100E0DC81FF1F00E100E008B5FFF7DFFE0B4B1A7842F001021A701A7802F0FE021A70FFF7D8FE0421064B1960064B00229A70DA701A715A71044B196008BD85
:401440009C64004080E100E0DC81FF1F00E100E0164BD9799B79DBB2994205D25A1E914214BF0022012204E0CA1A952A14BF00220122002AECD18B4207D10D4B1B7813F02D
:40148000040F02D10B4B18707047952900D90021094B58540131054BD971054B1B7813F0020F02D00822054B1A607047DC81FF1F6B6500404B6500407487FF1F00E200E063
:4014C00038B5074B5B782BB938BDFFF7C1FF0134A4B201E005460024285D0028F5D138BDDC81FF1F08B5FFF773FE0A4B1A7842F001021A701A7802F0FE021A70FFF76CFE55
:401500000823054A1360054A00219171D171044A136008BD9B65004080E100E0DC81FF1F00E100E01C4B1B78DBB213F01E0F05D01A4803F01E0201780A43027003F0200378
:4015400003F0FF022BB3164B1978C9B2154B1B78DBB21548C154154B1B7813F0FF0F02D00121134B19700F490B780133DBB20B700B78DBB2952B02D900210A4B1970094B46
:401580001B780C490978DBB28B4202D10121074B1970002AC6D170476B640040DC81FF1F4C640040DF81FF1FDC86FF1FE081FF1FE181FF1FDE81FF1F13E0104B1B78DBB2BE
:4015C000952B02D900220D4B1A700C4A1378DBB20B49CB5CDBB20B490B7013780133DBB21370064B1B78DBB2074A1278934204D0064B1B7813F0040FDFD07047E281FF1F62
:401600007487FF1F4B650040E381FF1F6B65004008B501200849FFF7FBFD01200721FFF70BFE0622054B1A70472210331A700222B13B1A7008BD00BF651700002A65004009
:4016400010B5FFF7C5FD0446084A137843F0100313700223064A1360A2F5C072136000F0BBF82046FFF7B8FD10BD00BF9964004080E200E008B5054B1B7823B9FFF7C8FFE1
:401680000122024B1A70FFF7DBFF08BDE581FF1F164B99785B78DBB2994205D25A1E914214BF0022012204E0CA1A312A14BF00220122002AECD18B4207D10D4B1B7813F07B
:4016C000040F02D10B4B18707047312900D90021094B58540131054B9970054B1B7813F0020F02D00222054B1A607047E581FF1F69640040496400400C88FF1F00E200E030
:4017000038B5074B1B782BB938BDFFF7C1FF0134A4B201E005460024285D0028F5D138BDE581FF1F08B5FFF753FD0A4B1A7842F001021A701A7802F0FE021A70FFF74CFD8B
:401740000223054A1360054A002151709170044A136008BD9964004080E100E0E581FF1F00E100E013E0104B1B78DBB2312B02D900220D4B1A700C4A1378DBB20B49CB5C75
:40178000DBB20B490B7013780133DBB21370064B1B78DBB2074A1278934204D0064B1B7813F0040FDFD07047E681FF1F0C88FF1F49640040E781FF1F69640040054A137818
:4017C00043F0010313701032137843F001031370704700BFA2430040054A137843F0040313701032137843F004031370704700BFA243004008B504201149FFF709FD0420F6
:401800000721FFF719FD00220E4B1A7072220E4B1A702022A3F580731A7005200B49FFF7F7FC05200721FFF707FD0622084B1A70472210331A70022203F24F131A7008BDF3
:40184000E1190000E981FF1F88650040751A00002B64004010B5FFF7BBFC04460E4A137843F020031370A2F58072137843F0100313700A4A1023136009490B7843F01003F1
:401880000B70202307490B60136000F01FF92046FFF7A2FC10BD00BF9865004000E100E09A65004080E200E008B5054B5B7823B9FFF7A0FF0122024B5A70FFF7CBFF08BD1F
:4018C000E981FF1F08B5FFF783FC0B4B1A7842F001021A701A7802F0FE021A70FFF77CFC1021064B1960064B00229A70DA701A715A71044B196008BD9864004080E100E0E9
:40190000E981FF1F00E100E0164BD9799B79DBB2994205D25A1E914214BF0022012204E0CA1A0E2A14BF00220122002AECD18B4207D10D4B1B7813F0040F02D10B4B18709F
:4019400070470E2900D90021094B58540131054BD971054B1B7813F0020F02D02022054B1A607047E981FF1F6A6500404A6400405088FF1F00E200E0084B5B7833B9704721
:40198000305DFFF7C1FF0134E4B203E070B50D4606460024AC42F3D370BD00BFE981FF1F08B5FFF715FC0A4B1A7842F001021A701A7802F0FE021A70FFF70EFC2023054A1C
:4019C0001360054A00219171D171044A136008BD9A64004080E100E0E981FF1F00E100E01C4B1B78DBB213F01E0F05D01A4803F01E0201780A43027003F0200303F0FF022F
:401A00002BB3164B1978C9B2154B1B78DBB21548C154154B1B7813F0FF0F02D00121134B19700F490B780133DBB20B700B78DBB20E2B02D900210A4B1970094B1B780C4914
:401A40000978DBB28B4202D10121074B1970002AC6D1704768640040E981FF1F48640040EC81FF1F4088FF1FED81FF1FEE81FF1FEB81FF1F13E0104B1B78DBB20E2B02D92D
:401A800000220D4B1A700C4A1378DBB20B49CB5CDBB20B490B7013780133DBB21370064B1B78DBB2074A1278934204D0064B1B7813F0040FDFD07047EF81FF1F5088FF1F35
:401AC0004A640040F081FF1F6A650040054A137843F0020313701032137843F002031370704700BFA243004081F0004102E000BF83F0004330B54FEA41044FEA430594EA37
:401B0000050F08BF90EA020F1FBF54EA000C55EA020C7FEA645C7FEA655C00F0E2804FEA5454D4EB5555B8BF6D420CDD2C4480EA020281EA030382EA000083EA010180EA38
:401B4000020281EA0303362D88BF30BD11F0004F4FEA01314FF4801C4CEA113102D0404261EB410113F0004F4FEA03334CEA133302D0524263EB430394EA050F00F0A78085
:401B8000A4F10104D5F1200E0DDB02FA0EFC22FA05F2801841F1000103FA0EF2801843FA05F359410EE0A5F120050EF1200E012A03FA0EFC28BF4CF0020C43FA05F3C01821
:401BC00051EBE37101F0004507D54FF0000EDCF1000C7EEB00006EEB0101B1F5801F1BD3B1F5001F0CD349085FEA30004FEA3C0C04F101044FEA445212F5800F80F09A804E
:401C0000BCF1004F08BF5FEA500C50F1000041EB045141EA050130BD5FEA4C0C404141EB010111F4801FA4F10104E9D191F0000F04BF01460020B1FA81F308BF2033A3F18D
:401C40000B03B3F120020CDA0C3208DD02F1140CC2F10C0201FA0CF021FA02F10CE002F11402D8BFC2F1200C01FA02F120FA0CFCDCBF41EA0C019040E41AA2BF01EB0451F0
:401C8000294330BD6FEA04041F3C1CDA0C340EDC04F11404C4F1200220FA04F001FA02F340EA030021FA04F345EA030130BDC4F10C04C4F1200220FA02F001FA04F340EAEA
:401CC0000300294630BD21FA04F0294630BD94F0000F83F4801306BF81F480110134013D4EE77FEA645C18BF7FEA655C29D094EA050F08BF90EA020F05D054EA000C04BF21
:401D00001946104630BD91EA030F1EBF0021002030BD5FEA545C05D14000494128BF41F0004130BD14F580043CBF01F5801130BD01F0004545F0FE4141F470014FF00000FF
:401D400030BD7FEA645C1ABF194610467FEA655C1CBF0B46024650EA013406BF52EA033591EA030F41F4002130BD00BF90F0000F04BF0021704730B54FF4806404F1320489
:401D80004FF000054FF0000150E700BF90F0000F04BF0021704730B54FF4806404F1320410F0004548BF40424FF000013EE700BF42004FEAE2014FEA31014FEA02701FBF04
:401DC00012F07F4393F07F4F81F06051704792F0000F14BF93F07F4F704730B54FF4607401F0004521F0004120E700BF50EA010208BF704730B54FF000050AE050EA010234
:401E000008BF704730B511F0004502D5404261EB41014FF4806404F132045FEA915C3FF4DCAE4FF003025FEADC0C18BF03325FEADC0C18BF033202EBDC02C2F1200300FA74
:401E400003FC20FA02F001FA03FE40EA0E0021FA02F11444C1E600BF70B54FF0FF0C4CF4E06C1CEA11541DBF1CEA135594EA0C0F95EA0C0F00F0DEF82C4481EA030621EABF
:401E80004C5123EA4C5350EA013518BF52EA033541F4801143F4801338D0A0FB02CE4FF00005E1FB02E506F00042E0FB03E54FF00006E1FB03569CF0000F18BF4EF0010EE0
:401EC000A4F1FF04B6F5007F64F5407404D25FEA4E0E6D4146EB060642EAC62141EA55514FEAC52040EA5E504FEACE2EB4F1FD0C88BFBCF5E06F1ED8BEF1004F08BF5FEAA5
:401F0000500E50F1000041EB045170BD06F0004646EA010140EA020081EA0301B4EB5C04C2BFD4EB0C0541EA045170BD41F480114FF0000E013C00F3AB8014F1360FDEBFF9
:401F4000002001F0004170BDC4F10004203C35DA0C341BDC04F11404C4F1200500FA05F320FA04F001FA05F240EA020001F0004221F0004110EBD37021FA04F642EB060176
:401F80005EEA430E08BF20EAD37070BDC4F10C04C4F1200500FA04F320FA05F001FA04F240EA020001F0004110EBD37041F100015EEA430E08BF20EAD37070BDC4F1200534
:401FC00000FA05F24EEA020E20FA04F301FA05F243EA020321FA04F001F0004121FA04F220EA020000EBD3705EEA430E08BF20EAD37070BD94F0000F0FD101F00046400023
:4020000041EB010111F4801F08BF013CF7D041EA060195F0000F18BF704703F00046520043EB030313F4801F08BF013DF7D043EA0603704794EA0C0F0CEA135518BF95EA44
:402040000C0F0CD050EA410618BF52EA4306D1D181EA030101F000414FF0000070BD50EA410606BF1046194652EA430619D094EA0C0F02D150EA013613D195EA0C0F05D143
:4020800052EA03361CBF104619460AD181EA030101F0004141F0FE4141F470014FF0000070BD41F0FE4141F4780170BD70B54FF0FF0C4CF4E06C1CEA11541DBF1CEA135522
:4020C00094EA0C0F95EA0C0F00F0A7F8A4EB050481EA030E52EA03354FEA013100F088804FEA03334FF0805545EA131343EA12634FEA022245EA111545EA10654FEA002604
:402100000EF000419D4208BF964244F1FD0404F5407402D25B084FEA3202B61A65EB03055B084FEA32024FF480104FF4002CB6EB020E75EB030E22BFB61A754640EA0C005D
:402140005B084FEA3202B6EB020E75EB030E22BFB61A754640EA5C005B084FEA3202B6EB020E75EB030E22BFB61A754640EA9C005B084FEA3202B6EB020E75EB030E22BF84
:40218000B61A754640EADC0055EA060E18D04FEA051545EA16754FEA06164FEAC30343EA52734FEAC2025FEA1C1CC0D111F4801F0BD141EA00014FF000004FF0004CB6E7DE
:4021C00011F4801F04BF01430020B4F1FD0C88BFBCF5E06F3FF6AFAEB5EB030C04BFB6EB020C5FEA500C50F1000041EB045170BD0EF0004E4EEA113114EB5C04C2BFD4EB73
:402200000C0541EA045170BD41F480114FF0000E013C90E645EA060E8DE60CEA135594EA0C0F08BF95EA0C0F3FF43BAF94EA0C0F0AD150EA01347FF434AF95EA0C0F7FF4A9
:4022400025AF104619462CE795EA0C0F06D152EA03353FF4FDAE1046194622E750EA410618BF52EA43067FF4C5AE50EA41047FF40DAF52EA43057FF4EBAE12E74FEA4102CB
:4022800012F5001215D211D56FF47873B3EB625212D94FEAC12343F0004343EA505311F0004F23FA02F018BF404270474FF00000704750EA013005D111F0004008BF6FF03D
:4022C000004070474FF00000704700BF4FEA4102B2F1E04324BFB3F5001CDCF1FE5C0DD901F0004C4FEAC0024CEA5070B2F1004F40EB830008BF20F00100704711F0804F0F
:4023000021D113F13872BCBF01F00040704741F480114FEA5252C2F11802C2F1200C10FA0CF320FA02F018BF40F001004FEAC1234FEAD32303FA0CFC40EA0C0023FA02F395
:402340004FEA4303CCE77FEA625307D150EA01331EBF4FF0FE4040F44000704701F0004040F0FE4040F40000704700BF80F0004002E000BF81F0004142001FBF5FEA410349
:4023800092EA030F7FEA226C7FEA236C6AD04FEA1262D2EB1363C1BFD218414048404140B8BF5B42192B88BF704710F0004F40F4000020F07F4018BF404211F0004F41F40C
:4023C000000121F07F4118BF494292EA030F3FD0A2F1010241FA03FC10EB0C00C3F1200301FA03F100F0004302D5494260EB4000B0F5000F13D3B0F1807F06D340084FEABB
:40240000310102F10102FE2A51D2B1F1004F40EBC25008BF20F0010040EA03007047490040EB000010F4000FA2F10102EDD1B0FA80FCACF1080CB2EB0C0200FA0CF0AABF83
:4024400000EBC25052421843BCBFD0401843704792F0000F81F4000106BF80F400000132013BB5E74FEA41037FEA226C18BF7FEA236C21D092EA030F04D092F0000F08BF9A
:402480000846704790EA010F1CBF0020704712F07F4F04D1400028BF40F00040704712F100723CBF00F50000704700F0004343F0FE4040F4000070477FEA226216BF08462D
:4024C0007FEA23630146420206BF5FEA412390EA010F40F4800070474FF0000304E000BF10F0004348BF40425FEA000C08BF704743F0964301464FF000001CE050EA0102AC
:4025000008BF70474FF000030AE000BF50EA010208BF704711F0004302D5404261EB41015FEA010C02BF84460146002043F0B64308BFA3F18053A3F50003BCFA8CF2083A99
:40254000A3EBC25310DB01FA02FC634400FA02FCC2F12002BCF1004F20FA02F243EB020008BF20F00100704702F1200201FA02FCC2F1200250EA4C0021FA02F243EB0200EF
:4025800008BF20EADC7070474FF0FF3C06E000BF4FF0010C02E000BF4FF0010C4DF804CD4FEA40024FEA41037FEA226C18BF7FEA236C11D001B052EA530C18BF90EA010F8D
:4025C00058BFB2EB030088BFC81738BF6FEAE17018BF40F0010070477FEA226C02D15FEA402C05D17FEA236CE4D15FEA412CE1D05DF8040B704700BF844608466146FFE7B6
:402600000FB5FFF7C9FF002848BF10F1000F0FBD4DF808EDFFF7F4FF0CBF012000205DF808FB00BF4DF808EDFFF7EAFF34BF012000205DF808FB00BF4DF808EDFFF7E0FF54
:4026400094BF012000205DF808FB00BF4DF808EDFFF7D2FF94BF012000205DF808FB00BF4DF808EDFFF7C8FF34BF012000205DF808FB00BF002100F0F7BE00210A2200F0BE
:40268000E1BF0000014B1868704700BF8081FF1F0E4B70B51E460E4C0025E41AA410A54204D056F8253098470135F8E702F040FE084B094C1E46E41AA4100025A54204D0E6
:4026C00056F8253098470135F8E770BD3C5300003C5300003C5300004453000010B5431E0A44914204D011F8014B03F8014FF8E710BD03460244934202D003F8011BFAE73D
:40270000704700000EB400B54FF402719CB0ADF814106FF00041049107914FF6FF711DABADF81610084953F8042B02900690086802A9019301F0A4FF029B00221A701CB040
:402740005DF804EB03B070478081FF1F024610B513461C780132002CFAD1013B11F8012B03F8012F002AF9D110BD034611F8012B03F8012B002AF9D17047034613F8012B3B
:40278000002AFBD1181A0138704730B5037823B90B78002B18BF002030BD03461A7801303AB100228C5C34B19D5CA542F5D10132F8E7104630BD184630BD30B5036811F8AE
:4027C000014B01334CB11A78A2F14105192D98BF2032A242F3D0002030BD0360012030BD2DE9F0410F46904601F01EFD04460D46B8F1000F11D0C7F30A53C3F16B03002BC5
:402800000BDD1B0503F17F55002405F5401522462B46FFF721FBBDE8F08120462946BDE8F0810000000000002DE9F04F00239FB01A9382460B46039115924FF000084FF01B
:4028400000091993199B1A780D2A05D8092A13D2002A00F0B78111E02B2A06D02D2A02D0202A0BD108E0012200E0002209925A1C19925B7823B9A5E10133E2E700230993BA
:40288000199C2378302B5CD16378582B01D0782B4CD11AAB0093099B5046019319A9AE4A1BAB00F028FF10F00706054600F0A585062E05D1013400231994099300F09DBD2D
:4028C0001A9A3AB11CA8352101F09BFD50461A9901F013FA1B9A062E21D8DFE806F0040D08171C0D04004FF00009C84617E0DDF87080DDF8749012E01D9B02F2334223F43E
:402900008013DDF8708043EA025908E0DFF84C924FF0000803E06FF000494FF0FF38290740F16B8549F0004900F067BD199B5A1C19925B78302BF9D0002B00F05E850123FD
:4029400000E000230026B34635460493199B0793199C2778A7F13003DAB2092A0CD8082D4FF00A0204F10104D4BF02FB0B3B02FB063601351994EBE7504601F07DF901686F
:402980005046059101F078F90068FFF7F6FE05990246204602F00CF928B100203B462C460246074657E00590504601F065F90068FFF7E3FE199B05991A1819921B5C002DB0
:4029C00041D12846302B05D1199B01305A1C19925B78F7E7A3F13102082A42D8199A0792024600200446303B00F1010125D00A4421460719B94211D0013101F1FF3EBEF14A
:402A0000080F04DC4FF00A0E0EFB0BFBF2E71029DCBF4FF00A0E0EFB06F6EBE72044082800F1010403DC0A2101FB0B3B04E0102CDCBF0A2101FB06360021199B581C199078
:402A40005B78084602E02C4608460A46A3F130010929C8D90127652B01D0452B64D16CB904E0652B40F0D7840022012728B9049B002B00F0A780044600E00024199B0393B5
:402A800001331993039B5B782B2B07D02D2B02D04FF0000C09E04FF0010C01E04FF0000C039B02331993039B9B78A3F13001092938D81946302904D1199B591C199159785A
:402AC000F8E7A1F1310EBEF1080F0B462CD8A1F130030593199B0693199B03F1010ECDF864E05B78A3F13001092908D805994FF00A0E0EFB0131A1F130030593ECE70699F8
:402B0000C1EB0E0EBEF1080F44F61F6E04DC05997145A8BF714600E07146BCF1000F04D0494202E0039919910021002C54D1002840F06384049A002A40F05F84002F41D147
:402B40004E2B20D002DC492B0AD03BE0692B07D06E2B18D036E000BFE05000000000F07F19A8AA49FFF729FE60B3199B19A8013BA7491993FFF721FE10B9199B01331993A2
:402B8000DFF8A4921AE019A8A249FFF716FEC8B1199B1B78282B0FD119A89F491CAA00F0E1FF052808D11D9BDDF8708043F0FF4949F4E00900F021BCDFF870924FF0000815
:402BC00000F01BBC039B1993159B002B00F020840023099300F013BC8B1A06932B46002D08BF23465846102C25460393A8BF1025FFF7BCF8092D8046894613DD874B03EB2F
:402C0000C50353E91223FFF727F9804630468946FFF7ACF802460B4640464946FEF76AFF804689460F2C36DC069B002B00F0E58324DD162B07DC794A02EBC302D2E9000138
:402C40004B46424615E0069AC4F125039A4222DC724DC4F10F0405EBC403D3E9000142464B46FFF7F9F8069B1C1B05EBC405D5E90023FFF7F1F880468946BEE3069B13F1C8
:402C8000160F08DB654A4046A2EBC30249460CCAFFF70CFAEFE7069B651B1D44002D58DD15F00F020AD05D4B03EBC203D3E9000142464B46FFF7D0F88046894635F00F05BD
:402CC00000F0BA80B5F59A7F0FDD4FF0000BCDF80CB0CDF81CB0CDF814B02223CAF80030DFF844914FF0000883E14946DFF8409140464E462D110027012D0ADDEA0703D5F4
:402D0000D9E90023FFF7A8F801376D1009F10809F2E78046A1F1547906EBC7064246D6E900014B46FFF798F821F0004389460A461B0D3B491B058B428046C6D8A1F58011A6
:402D40008B4286BFDFF8EC904FF0FF3802F1547972E071D06D4215F00F020AD02F4B404603EBC2034946D3E90023FFF79FF9804689462D1160D01F2D08DD4FF0000BCDF894
:402D80000CB0CDF81CB0CDF814B02BE14046494615F0100F0CBF00236A23224E0493002D08DDEB0703D5D6E90023FFF755F86D100836F4E7049B80468946EBB1C1F30A53FE
:402DC000C3F16B03002B0A4616DD1F2B0EDD342BDEBF203B4FF0FF3101FA03F34FF00008CCBF4FF05C7903EA020905E04FF0FF3202FA03F303EA00084046494600220023E3
:402E000001F09EFF0028B8D118E000BFAC500000AF500000B550000098500000005200000000A07CB85000000000F07F0000F8FFC8520000FFFFEF7F00230493CDF800B023
:402E400050460799039A234600F0ACFF079000283FF43BAF069A069B002AC3F100034FF0000BA8BF00230E93CDF80CB0079B5046596800F00DFF059000283FF42EAF079B23
:402E80000C301A69079B023203F10C019200FFF725FC1BAB00931CAB0193504642464B46CDE90A8901F033FA1A9000283FF415AF5046012101F003F8039000283FF40DAFF2
:402EC000069B049923EAE3771B9B1C9C002BAABF0E9AFA1AD618A3EB010323446FF47F71ACBF3A460E9E8B42C4F1360480F28680C91A1F29A4EB0104C8BFB3494FF00100E8
:402F0000D5BF00FA01F3C91A149300FA01F3D9BF00230F930F9314903519049BB54214441C442B46A8BF3346A342A8BF2346002BC2BFED1AE41AF61A0E9B002B63D1002D5C
:402F40007BDC002F40F08380002C00F38A80002E00F3918050461A99059A01F006F9834600283FF4BAAEC3680024C4600399089301F0DFF8A04280F28D80089B002B40F008
:402F80001582B8F1000F40F01182C9F31303002B40F00C8229F000431B0D1B05B3F1D66F40F20482DBF81430002B6ED059460122504601F06BF80399834601F0BAF80028A3
:402FC00040F3F48129F00043049A1B0D1B05002A00F08F80B3F1D66F00F38B80B3F15C7F00F3E68122234FF000084FF00009CAF80030079B002B40F0EC81FEE100230F932A
:403000000123149388E71A465046039900F0F0FF0390034600283FF460AE504619461A9A00F056FF089000283FF457AE50461A9900F063FE089B1A9381E750461A992A46AF
:4030400001F024F81A9000287FF47BAF45E6504605993A4600F0CCFF059000287FF474AF3BE650460599224601F010F8059000287FF46DAF31E650460399324601F006F835
:40308000039000287FF466AF27E6DBF81030012B8CDC8BE162D1089AC9F3130322B34B494A468B422ED1049B414663B1484B1340B3F1D46F07D81B0DC3F16B034FF0FF30A3
:4030C00000FA03F301E04FF0FF3399421AD1414B9A4202D101313FF400AE3D4B4FF00008134003F5801961E163B9B8F1000F09D168E7A3F580136FEA13594FF0FF386FEAC9
:40310000095953E10F9B13B113EA090F02E0149B13EA080F00F04A81089B40464946049A53B1FFF75DFB02460B46DDE90A01FEF7E1FC8046894639E1FFF752FB02460B46A7
:40314000DDE90A01FEF7D4FC002200238046894601F0F6FD00287FF445AF27E15846039901F027F900224FF0804306460F4601F0FBFD00283FD0089B13B10026164F10E052
:40318000B8F1000F03D1C9F313033BB90BE0B8F1010F03D1B9F1000F3FF424AF0F4F002600240D4D3CE03046394600220A4B01F0D1FDB8B9304639460022094BFEF74CFE22
:4031C00004460D4610E000BFE3FBFFFFFFFF0F000000F07FFFFFEF7F0000F03F0000F0BF0000E03F089C9A4D05F1004316941793DDE9166714E0964B304639460022FEF786
:403200002BFE089B04460D4623B901F100431090119303E002460B46CDE91023DDE9106729F0004C4FEA1C5C8A4B4FEA0C5C9C4531D1DDE90A23A9F1547940464946CDF88B
:403240003CC0CDE90C2300F0EFFF02460B4630463946FEF701FE02460B4640464946FEF749FC21F000431B0D7B4A1B0593428046DDF83CC00CD9794B0D9A9A4203D10C9BB1
:4032800001333FF42AADDFF8D4914FF0FF387CE001F1547944E0049B63B3BCF1D46F29D863A3D3E9002320462946CDF83CC001F05BFDDDF83CC0C8B12946204601F072FDF6
:4032C000002808BF0120FEF751FD089B04460D46DDF83CC023B901F100431290139303E002460B46CDE91223DDE9126707F1D663CCEB0307DDE90A01CDF83CC000F094FF64
:4033000002460B4630463946FEF7A6FD02460B46DDE90A01FEF7EEFB80468946DDF83CC0049B4E468BBB29F000431B0D1B059C452BD129462046FEF7A1FFFEF727FD0B46EB
:40334000024629462046FEF7D3FB089B04460D462BB9B8F1000F02D1C9F313067EB136A3D3E900232046294601F0F4FC88BB34A3D3E900232046294601F00AFD04E032A3CD
:40338000D3E9002301F0E6FC18BB50461A9900F0B4FC5046059900F0B0FC5046039900F0ACFC5046594600F0A8FC5FE5049B83B12B4B40460D9300230C934946DDE90C2343
:4033C000FEF74AFD8046894619B910B92223CAF8003050461A9900F090FC5046059900F08CFC5046039900F088FC5046079900F084FC5046594600F080FC159B13B1199BA4
:40340000159A1360099B1BB1424609F1004307E042464B4604E0002422460127FFF71DBB104619461FB0BDE8F08F00BFAFF300800000C0FFFFFFDF419535A094FFFFDF3F4F
:4034400035E5AF350000E03F9535A094FFFFCF3F0000E03F0000E07FFFFF9F7CFFFFEF7F00005039AFF3008003460A46024908681946FFF7D9B900BF8081FF1F174B2DE9E6
:40348000F0411D680646AC6D0F46FCB9502000F0F7FBA8658460AB6D046044601C61DC60AB6D9C615C61AB6DDC629C62AB6D5C631C63AB6DDC639C63AB6D5C641C64AB6D89
:4034C000DC649C64AB6D1C77AB6D5C6230463946AA6D0123BDE8F04100F002B88081FF1FF0B548B9106838B9F0BD17F8016B5EB1B542FAD12BB1204604460F4614F8015BEB
:40350000F3E714600370F0BD4DB915602846F0BD17F8016BAE4207D0002EF9D11C4623460F4613F8015BF3E715B10021217000E02B461360F0BD00002DE9F0470F46404CD5
:40354000D4F800903D4615F801EB09EB0E04667806F0080404F0FF060CB12F46F2E774462D2C03D1BD1C7C78012603E02B2C04BF7C78BD1C13B1102B0AD15AE0302C56D14D
:403580002C7804F0DF04582C4CD16C7810230235002E14BF4FF000486FF00048B8FBF3FA0027BE4603FB1A8809EB040C9CF801C01CF0040F01D0303C0BE01CF0030C1BD061
:4035C000BCF1010F0CBF4FF0370C4FF0570CCCEB04049C4210DAB7F1FF3F0AD0D64506D801D1444503DC03FB0E4E012701E04FF0FF3715F8014BD7E77C1C73460AD1002E5C
:403600004FF0220114BF4FF000436FF0004301602AB911E00EB1CEF100036AB107B1691E116009E03024002BB2D10823B0E70A23AEE7302CACD1A3E71846BDE8F08700BFA5
:403640008481FF1F30B505460C461346034A294610682246BDE83040FFF76EBF8081FF1FF0B506694B11B34200F1140527DA11F01F0105EB860605EB830201D1294616E0A0
:40368000141D55F823202B46C1F1200ECA40B44209D2276807FA0EF73A4343F8042B54F8042BCA40F3E71A6052B1043308E0B2420B4605D252F8043B41F8043BF7E72B463A
:4036C0005B1B9B10036103B94361F0BDA0F13003092B01D820380AE0A0F16103052B01D8473804E0A0F14103052B02D82738C0B27047002070472DE9F04F89B08A46914651
:403700000493019000F0B8FA0368002618460293FFF733F8029B0090034413F8013C0593DAF800300233984613F8010B302801D10136F8E7FFF7CAFF0446E8B9404602998F
:40374000009A01F035FA002837D1009B18F8030008EB0307FFF7BAFF88B33B4618789846302803F10103F9D0FFF7B0FFB0FA80F53C466D09012601E000252C46C3465F46B9
:4037800038780BF1010BFFF7A1FF0028F7D138460299009A01F00CFA58B95CB9009BFC18A3465F4638780BF1010BFFF78FFF0028F7D134B1E41BA40003E0474600E0044670
:4037C00001253B78502B01D0702B30D17B782B2B06D02D2B02D07A1C002303E0012300E00023BA1C107806930392FFF76FFF411EC9B21829039A069B19D8A0F1100B12F80C
:40380000010F069303920792FFF760FF411EC9B21829039A069B05D80A2101FB0B0BABF1100BECE70BB1CBF1000B5C4400E03A46CAF8002025B1002E14BF002006207CE180
:403840002946C8EB0703013B072B02DD01315B10FAE7019800F01CFA4FF0000A00F1140B05465E46D446474537D97B1E0393059A17F8013C934209D0BCF1200F1AD1C6F867
:4038800000A04FF0000A0436D44613E0009B039AC3F1010313444345EED318460299009ACDF81CC0069301F083F9069BDDF81CC088B1E1E717F8010CCDF818C0FFF706FF07
:4038C000DDF818C000F00F0000FA0CF0039B4AEA000A0CF1040C1F46C5E746F804ABCBEB0606B01028614701504600F09BFAD9F80060381AB04226DD871B3946284600F0DA
:403900009AFDC8B17B1E5A1103F01F014FF001085BF8222008FA01F111420ED0434502DC4FF0020809E02846B91E00F084FD0028F6D04FF0030800E0804628463946FFF74F
:403940008FFE3C440CE009DA371A294601983A4600F09CFB0546E41B00F1140B4FF00008D9F808309C4208DD0198294600F0C5F9129A00231360A320DFE0D9F80400844289
:4039800053DA041BB4422EDBD9F80C30022B1AD0032B1CD0012B1DD1B4421BD1012E0BDCD9F80430049A6220136001232B61CBF80030129B1D60C0E02846711E00F03BFD42
:4039C0000028EDD106E0139B002BE9D002E0139B002BE5D10198294600F08FF9129A002313605020A9E0671EB8F1000F07D1002F07DD2846394600F01EFD804601E04FF037
:403A000001087A115BF8222007F01F070123BB4013422146284618BF48F00208361BFFF71FFE0227D9F8044000E00127B8F1000F7ED0D9F80C30022B0ED0032B10D0012BDC
:403A400074D118F0020F71D0DBF8000048EA000818F0010F07D169E0139BC3F101031393139B002B62D0D5F810A005F114034FEA8A0803EB08011A68501C02D001321A6091
:403A800021E0002243F8042B8B42F4D3AB689A4512DB69680198013100F0FAF883462A6905F10C01023292000C30FEF717FE2946019800F022F95D462B695A1C2A6105EBE2
:403AC000830301225A61022F05F1140210D1D9F80030013B9E4226D17111012306F01F0652F82120B34013420CBF022701271AE02B6953450ADD28460121FFF7B1FDD9F86E
:403B0000083001349C423FF72FAF0BE016F01F0608D0904458F8040C00F084F9C6F12006B042E8DB012747F0200701E047F010073846129B1D60049B1C6009B0BDE8F08FB0
:403B4000C2F10802920070B5C2F120064368056803FA06F42C43D340046040F8043F8842F4D370BD2DE9F04F0E681746751102EB850516F01F0318BF04350022A5F10409A8
:403B80008346C8464C46164685B0D0F800A0019345F8042C00921AF8011F00293AD0084603920291FFF792FD0299039AE8B9202914D8009BB342EEDA444505D2072A03DCDA
:403BC00020464146FFF7BCFFBC4221D9A4F10408002244F8042C00964446DCE7292945D10AF10103CBF8003014E00132082A06F1010606DDBC42CED9002244F8042C043C16
:403C00000122216800F00F0040EA01102060C2E70822C0E756B3444505D2072A03DC20464146FFF78DFFBC420CD93B4654F8042B4C4543F8042BF9D9002243F8042B4B45F4
:403C4000FAD90BE0019B4BB1C3F1200655F8042C4FF0FF33F340134045F8043C55F8043D33B9BD42FAD101232B6001E0042000E0052005B0BDE8F08F004870478881FF1F27
:403C8000024B0146186800F04BBC00BF8081FF1F70B5456A04460E463DB91020FFF7F0FF6062456085600560C560656AEB6843B1636ADB6853F8260078B1026843F826201D
:403CC00017E020460421212200F0D7FB636AE860DB68002BECD1002070BD012101FA06F56A1D2046920000F0C8FB0028F3D04660856000230361C36070BD70B5446A0646FA
:403D00000D463CB91020FFF7BBFF7062446084600460C4603DB1736A6A68DB6853F82210296043F8225070BD2DE9F04106460C460F69984601F1140E0023DEF8000001333D
:403D400085B2010C02FB0585514301EB1541ADB24FEA1148BB4205EB01414EF8041BECDBB8F1000F1BD0A3689F4212DB616830460131FFF78DFF0546226904F10C010232DB
:403D800092000C30FEF7AAFC21463046FFF7B5FF2C4604EB87030137C3F8148027612046BDE8F0812DE9F843074615469846092208330C4693FBF2F2002101239A4202DD9C
:403DC0005B000131FAE73846FFF762FF089B092D43614FF001030146036110DD04F10906B1462C4419F8013B38460A22303BFFF79BFFA1450146F5D17419083C01E00A34E8
:403E0000092526462B1B3344434508DA16F8013B38460A22303BFFF787FF0146F2E70846BDE8F883030C1B0413B90004102300E0002310F07F4F04BF0002083310F0704F97
:403E400004BF0001043310F0404F04BF80000233002803DB420003D5581C70471846704720207047036813F007020BD0D90722D49A074BBF5B089B08036003604CBF01201E
:403E80000220704799B209B91B0C102213F0FF0F04BF1B0A0832190704BF1B090432990704BF9B080232D90702D45B0805D00132036010467047002070472020704710B5F5
:403EC0000C460121FFF7E4FE01224461026110BD2DE9F74F14460A69236988469A42BEBF0B46A0461C46D8F81070D4F81090D8F80830D8F8041007EB09069E42C8BF0131C7
:403F0000FFF7C6FE00F114052B4605EB860C634503D2002243F8042BF9E704F1140208F1140102EB890301EB87070093009B01929A4257D2B2F800B0BBF1000F23D0894638
:403F4000AE464FF0000859F8044BBEF800A0A3B20BFB03A34FEA144ADEF8004043444FEA14480BFB0A84F24604EB13449BB243EA04434F454FEA14484AF8043B01D9D646D3
:403F8000E1E7CEF80480019B0432B3F802A0BAF1000F21D02C4689462B684FF00008B9F800E0B4F802B09BB20AFB0EBEA346F04443EA08434BF8043B59F8043BB4F804E0C6
:403FC0001B0C0AFB03E3B94503EB18434FEA134801D25C46E3E763600435A7E75CF8043D13B9013E002EF9DC066103B0BDE8F08F12F003032DE9F04106460F46154607D008
:40400000214A013B52F823200023FFF78DFE0746AD1035D0746A3CB91020FFF731FE7062446084600460C460D6F82480D8F808407CB9304640F27121FFF741FF0023C8F87D
:4040400008000446036004E06D1019D0206870B10446EB07F8D5394622463046FFF738FF804639463046FFF748FE4746ECE7304621462246FFF72CFF002320600360E7E774
:404080003846BDE8F08100BFF05200002DE9F0470C460746164623694FEA621A0AEB03094968A36809F101059D4202DD01315B00FAE73846FFF7ECFD804600F114010023AD
:4040C000534504DA002241F823200133F8E72AEAEA73206901EB830316F01F0204F1140101EB800E14D0C2F1200C00200E689A469640304343F8040B51F8040B714520FA8E
:404100000CF0F3D3CAF8040048B109F1020506E0043B51F8042B714543F8042FF9D3013D3846C8F810502146FFF7E7FD4046BDE8F08703690A6910B59B1A11D192001430A0
:40414000143183180A4453F8044D52F8041D8C4202D007D3012010BD8342F4D8002010BD184610BD4FF0FF3010BD2DE9F84307460C46084611461546FFF7DBFF061E08D101
:4041800038463146FFF784FD012303614661BDE8F883BCBF23462C4638466168BABF1D4601260026FFF774FD2B69C660266905F1140904F1140101EB860709EB830800F1C8
:4041C00014054FF0000C51F8042B59F8044B93B29C44A3B2240CC3EB0C03C4EB124202EB23429BB24FEA224CC84543EA02428E4645F8042BE7D8BE450ED25EF8043B9AB252
:4042000062441B0C03EB224392B242EA03424FEA234C45F8042BEEE755F8043D0BB9013EFAE70661BDE8F883104B0B40A3F15073002B02DD0020194670475B421B15132B7F
:404240004FF000004FF0000104DC4FF4002242FA03F17047322B4FF00102CEBF1346C3F1330302FA03F31846704700BF0000F07F2DE9F041056900F1140707EB850555F865
:40428000044C88462046FFF7CDFDC0F120030A28A5F10406C8F8003011DCC0F10B0E24FA0EF1BE4241F07F538CBF55F8081C0021153043F4401321FA0EF184401BE0BE42C8
:4042C00086BFA5F1080655F8081C0021B0F10B0514D0AC40C0F12B0044F07F5444F4401421FA00FEBE4244EA0E038CBF56F8044C0024C440A94044EA010204E00A4644F068
:404300007F5343F4401310461946BDE8F0812DE9F3411C4601211546089F099EFFF7B8FCC4F31302C4F30A5480460CB142F480120192EDB102A840F8085DFFF793FD009B70
:4043400050B1019AC0F1200102FA01F10B43C240C8F81430019201E0C8F81430019B002B14BF02250125C8F81830C8F8105009E001A8FFF777FD019B0125C8F81430C8F884
:404380001050203034B1A4F2334404443C60C0F1350009E0A0F2324008EB850338601869FFF740FDC0EB45103060404602B0BDE8F0812DE9F743884669468146FFF758FF1E
:4043C0000F46064601A94046FFF752FF0D460446019A009BD8F810109B1AD9F810203046521A03EB4213002BCCBF07EB0357A5EB0355394622462B46FDF758FE03B0BDE823
:40440000F083013910B549111469013102F1140300EB810103EB8404A342024604D253F8042B40F8042BF7E78A4203D2002342F8043BF9E710BD00F1140200694B118342D7
:4044400010B50CDC0CDA11F01F0109D052F8234024FA01F000FA01F1A1420CD100E0034602EB8303934204D953F8041D0029F9D001E0002010BD012010BD38B502FB01F400
:40448000214600F04DF8054618B100212246FEF730F9284638BD000030B500293CD051F8042C0B1F1D49002AB8BF9B180A680C4612B95A600B6030BD93420DD21968581885
:4044C000904201BF5A5852181A60426823605A6030BD994203D80A4651680029F9D1146815199D420AD11B682344D0188842136012D10868034413604B680CE002D90C23E5
:40450000036030BD1C681819884201BF08684968001918605960536030BD00BFF881FF1F70B5CC1C24F0030408340C2C38BF0C24002C064603DA0C233360002070BD8C4296
:40454000F9D3204A136810461946A1B10A68121B0ED40B2A03D90A608B188C501FE08B420BBF5A684A6802605A6018BF0B4616E00B464968E9E7144D2B681BB9304600F0C4
:4045800007FB28603046214600F002FB421C0346D1D0C51C25F0030585420AD11C6003F10B001A1D20F00700821A0AD05142995070BD3046E91A00F0EBFA0130BBD02B465C
:4045C000ECE770BDF881FF1FF481FF1F2DE9F0478E688246B3420C469046994640D38A8912F4906F3AD02568096902236F1A656905EB450595FBF3F57B1C4B449D4238BF2C
:404600001D4653050FD52946FFF78AFF064698B121693A46FEF762F8A38923F4906343F08003A38113E02A4600F004FB064670B950462169FFF730FF0C23CAF80030A38996
:404640004FF0FF3043F04003A381BDE8F08726613E4426604E466561ED1BA560B14500D24E4632462068414600F0C9FAA36800209B1BA36023681E442660BDE8F087000017
:404680002DE9F0439DB003938B8906461C060D4690460CD50B6953B94021FFF741FF2860286110B90C233360CCE040236B610023099320238DF8293030238DF82A30434619
:4046C0001C4613F8012B1AB9B4EB08090FD002E0252AF5D1F8E73046294642464B46FFF775FF013000F0A980099B4B4409932378002B00F0A28000234FF0FF3204930793CC
:40470000059206938DF853301A9304F101084446DFF8489121784846052200F062FA08F10108049B30B1C9EB00000122824013430493ECE7D80644BF20228DF853201907AC
:4047400044BF2B228DF8532022782A2A02D0079923460EE0039A0134111D12680391002ABBBF524243F0020307920792B8BF04930AE01C4622780133303A092A03D80A20C0
:4047800000FB0121F5E7079123782E2B1AD163782A2B0AD1039B02341A1D1B680392002BB8BF4FF0FF3305930CE0611C00220C4623780131303B092B03D80A2000FB023233
:4047C000F5E70592DFF8988021784046032200F008FA38B1049AC8EB00004023834013430493013421781A48062204F101088DF8281000F0F6F988B1164B33B9039B073384
:4048000023F007030833039313E003AB0093304604A92A46104BAFF3008007E003AB0093304604A92A460C4B00F092F8421C074603D0099B3B44099341E7AB895B0601D4EB
:40484000099801E04FF0FF301DB0BDE8F08300BF0653000000000000CD450000FC520000025300002DE9F84391461F468A680B6906469342B8BF1346C9F8003091F84320D5
:404880000C46DDF8208012B10133C9F800302368990642BFD9F800300233C9F80030256815F006051CD094F843302268003318BF012392061FD5E118302081F843005A1CB0
:4048C00094F845102244023382F8431013E03046394604F119020123C047013007D00135E368D9F800209B1A9D42F0DBDBE74FF0FF30BDE8F8833046394604F14302C047ED
:404900000130F4D02268D9F80050E36802F00602042A08BF5D1B2269A3680CBF25EAE57500259342C4BF9B1AED184FF00009A9450ADA3046394604F11A020123C0470130A8
:40494000D5D009F10109F2E70020BDE8F88300002DE9FF410C461746227E98466E2A06460A9B01F1430100F0B08012D8632A23D00AD8002A00F0BD80582A40F0CC8084F8F6
:404980004520DFF804E257E0642A1ED0692A1CD0C1E0732A00F0B18009D86F2A2ED0702A40F0B980226842F0200222603FE0752A24D0782A3BD0AEE01A6804F14205111D90
:4049C0001960136884F84230A9E020681A6810F0800F02D0101D186008E010F0400F02F10400186002D0B2F9003000E01368002B3EDA2D225B4284F8432039E020681A685D
:404A000010F0800F02D0101D186007E010F0400F02F10400186001D0138800E01368227EDFF864E16F2A0CBF08220A221CE07822DFF858E184F845202268186812F0800F6C
:404A400000F104051D6003D1550601D5038800E00368D00744BF42F0200222601BB9226822F0200222601022002084F8430002E0DFF814E10A226568002DA8BF2068A56047
:404A8000A4BF20F00400206003B965B10D46B3FBF2F002FB10331EF8033005F8013D03460028F4D100E00D46082A0BD12368DA0708D5236962689A42DEBF302305F8013C6A
:404AC00005F1FF35491B21612EE025681A6815F0800F606903D0151D1D60136808E015F0400F02F104051D60136801D0188000E01860002323610D4616E01A68111D196025
:404B0000156800212846626800F06BF808B1401B6060636804E004F1420584F8422001232361002384F84330CDF800803046214603AA3B46FFF796FE013002D14FF0FF30A9
:404B40001FE0304639462A462369C0470130F5D023689B0705D4E068039B9842B8BF18460FE00025E368039A9B1A9D42F3DA3046394604F119020123C0470130DED001350B
:404B8000F0E704B0BDE8F0810D5300001E53000038B5064C0023054608462360FCF75EF9431C02D1236803B12B6038BD6088FF1F70B5A2B1451E01396B7811F8014F6E1CE9
:404BC000A34206D16FF00104641B1444E04202D11C46181B70BD3546002BEDD1F8E7104670BD10B5C9B202449042034605D01C7801308C42F8D1184610BD002010BD814294
:404C000010B501EB020301D3421E0BE09842FBD28118D21AD34204D013F8014D01F8014DF8E710BD994204D011F8014B02F8014FF8E710BDF8B5074615460E4621B911466A
:404C4000BDE8F840FFF76CBC1AB9FFF725FC2846F8BD00F015F8A8420ED238462946FFF75FFC044650B131462A46FDF737FD38463146FFF711FC01E03046F8BD2046F8BDAE
:404C800051F8040C0028BEBF091851F8043CC018043870474FF0FF3C06E000BF4FF0010C02E000BF4FF0010C4DF804CD4FEA410C7FEA6C5C4FEA430C18BF7FEA6C5C1BD0E1
:404CC00001B050EA410C0CBF52EA430C91EA030F02BF90EA020F0020704710F1000F91EA030F58BF994208BF90422CBFD8176FEAE37040F0010070474FEA410C7FEA6C5C29
:404D000002D150EA013C07D14FEA430C7FEA6C5CD6D152EA033CD3D05DF8040B704700BF8446104662468C461946634600E000BF01B5FFF7B7FF002848BF10F1000F01BD59
:404D40004DF808EDFFF7F4FF0CBF012000205DF808FB00BF4DF808EDFFF7EAFF34BF012000205DF808FB00BF4DF808EDFFF7E0FF94BF012000205DF808FB00BF4DF808ED95
:404D8000FFF7CEFF94BF012000205DF808FB00BF4DF808EDFFF7C4FF34BF012000205DF808FB00BF4A0011D212F5001211D20DD56FF47873B3EB62520ED44FEAC12343F06A
:404DC000004343EA505323FA02F070474FF00000704750EA013002D14FF0FF3070474FF00000704700000000343937350000000037362E3234302E3136352E3136390000E9
:404E000054657374206D657373616765000000000D0A0000200000002C0000000D000000256400004154235353454E443D00000041542353493D0000300000004154235396
:404E4000524543563D00000041542B434D47533D00000000436865636B696E6720666F722074657874206D657373616765730D0A0000000041542B434D474C3D0000000087
:404E80002252454320554E5245414422000000004F4B00005465787420726563656976656400000041542B434D47443D00000000312C3400415445300000000041542B4399
:404EC0005245473F00000000302C3100302C3500436F6E6E656374696F6E205375636365737366756C210D0A0000000041542B434D47463D00000000310000004154235399
:404F0000530000002C30000041542353483D00000D0A536F636B657420257320686173206265656E207368757420646F776E2E0D0A00000041542353474143543F0000007A
:404F4000312C300041542353474143543D000000312C31000D0A41637469766174696E6720636F6E746578742E2E2E0D0A0000000D0A446F6E65210D0A000000436F6E745F
:404F800065787420686173206265656E206163746976617465640D0A0000000041542353443D0000312C302C000000002C302C302C3100000D0A436F6E6E656374696E6725
:404FC00020746F2067726F756E642073746174696F6E2E2E2E0D0A005375636365737366756C6C7920636F6E6E6563746564210D0A0000004552524F52000000436F6E6E14
:40500000656374696F6E206572726F722E204C414D452121210D0A004D4F56454F4E45504F5300004D4F56454F4E45414E4700004D4F56454F4E4553504400005F00000064
:4050400053525600C84900401900005100401000305100404000F0510040100000000140000C800C0140800300140140000800400140000A004C01400002005001402000D3
:40508000605200406C0700480600000C01407407004880004300000034000000CEFBFFFFCB03000001000000000000006E6600696E69747900616E00BC89D897B2D29C3CC0
:4050C00033A7A8D523F649393DA7F444FD0FA5329D978CCF08BA5B25436FAC642806681135000000CEFBFFFFCB03000001000000000000000020202020202020202028284A
:40510000282828202020202020202020202020202020202020881010101010101010101010101010100404040404040404040410101010101010414141414141010101011D
:4051400001010101010101010101010101010101101010101010424242424242020202020202020202020202020202020202020210101010200000000000000000000000AB
:4051800000000000000000000000000000000000000000000000000000000000000000000000000000000000000000000000000000000000000000000000000000000000EF
:4051C0000000000000000000000000000000000000000000000000000000000000000000000000000000000000000000000000000000000000504F534958002E00000000EE
:40520000000000000000F03F000000000000244000000000000059400000000000408F40000000000088C34000000000006AF8400000000080842E4100000000D01263410D
:405240000000000084D797410000000065CDCD41000000205FA00242000000E876483742000000A2941A6D42000040E59C30A2420000901EC4BCD64200003426F56B0C4316
:405280000080E03779C3414300A0D8855734764300C84E676DC1AB43003D9160E458E143408CB5781DAF154450EFE2D6E41A4B4492D54D06CFF08044F64AE1C7022DB54440
:4052C000B49DD9794378EA440080E03779C34143176E05B5B5B89346F5F93FE9034F384D321D30F94877825A3CBF737FDD4F157505000000190000007D000000232D302B5D
:405300002000686C4C00656667454647003031323334353637383941424344454600303132333435363738396162636465660000F8B500BFF8BC08BC9E4670474D00000059
:40534000D90E0000F8B500BFF8BC08BC9E46704729000000685300000881FF1FB8000000A806000000000000000000006888FF1F0000E02EC05D00001800000000366E01E0
:405380000000000000000000000000000000000000000000000000000000000000000000945000000000000000000000000000000000000000000000000000000000000009
:4053C00000000000000000000000000000000000000000000000000000000000000000002081FF1FF4500000FB5100000153000001530000015300000153000001530000BA
:4054000001530000015300000153000001530000FFFFFFFFFFFFFFFFFFFFFFFFFFFF000000000000000000000000000000000000000000000000000000000000000000002A
:40544000000000000000000000000000000000000000000000000000000000000000000000000000000000000000000000000000000000000000000000000000000000002C
:4054800000000000000000000000000000000000000000000000000000000000000000000000000000000000000000000000000000000000000000000000000000000000EC
:4054C00000000000000000000000000000000000000000000000000000000000000000000000000000000000000000000000000000000000000000000000000000000000AC
:40550000000000000000000000000000000000000000000000000000000000000000000000000000000000000000000000000000000000000000000000000000000000006B
:020000040003F7
:0200000480007A
:40000000035200400464004003650040020501400207014066080140430901406A0A0140490B0140080C0140300D014003150140031701406018014056190140661A014012
:40004000551B014006400140064101400A4201400743014004450140034601400547014007480140104901400E4C01400B4D014005500140035101400C20104014808838AE
:40008000890F8B388C7288728A0F8B0FE208E608E202E6100204056706020E01100C14081501170E19441B311E022201280C29672D222F5130023118320133603507360CCE
:4000C00038803E453F01403541024204440145E046C0480A49FF4AFF4BFF4C624DA04EF04F41500C54185604580459045A045B045C105D115F016640670269106A306B1012
:400100006D106E106F12801C82438441860E89018E1C944196169C20A208A480A603B0C0B220B301B41AB60FB802BAA0BE04BF04C031C102C50BC6E0C70CC819C9FFCAFF10
:40014000CBFFCEF0CF44D00CD401D604D804D904DA04DB04DC02DD22DF01E6C0EA40EB0200040382069007010A100B010C400E410F2010A01521180419081B821F45220408
:40018000251027582D802F08371838203A403B803D044004414042104440452047444B044D014E0150185220561058025A885B205D0261026602670A86028D0A9008912019
:4001C0009240988099049A809E40A310AF02C0BDC2B5C45CCA30CC60CE44D0FED210D68FD8B1E610E8080001020E0308041C05030603071409330B0C0E03140116161E1C05
:4002000021332304250A260827342D402F15301A3160340F350F371039023A223B203F4040254104450E46B0470C481949FF4AFF4BFF4EF04F44500C580459045A045C118D
:400240005D015F0166C06A406B02800C8211853F864088208A038E8091209280941C950296029705981499149B0A9E40A009A210A410A810A93FAA0CAD09AF12B020B12000
:40028000B280B307B41FB518B640BE45C004C640C9FFCA07CBFFCC40CD20CEF0CF05D008D418D604D804D904DA04DB04DC01DD01DF01E040E1A8E240E32000040182048079
:4002C000051206100A220C020DA00F20102015221620180419021A401B101D501F06211122512504262A29822A802B102C012F0836283701380839223D04411042404640F3
:40030000498450045120542056A058805A805C01654066026788860287409081910498019A109B01A002A180A308A504A622B081B120B380B620B740C0FDC2F5C474CA3B50
:40034000CCE0CE47D085D208D680D8B086019205A602B403B604BE10D804DF01022004100508075008010E2A0F8011081401172A19801B101C101D881E481F04248125200D
:40038000261027102C802D882F04362737803E2A3F8045A84E024F20540256105E406D046F09762A772A8D048F40C074C2F8C4F4CAF0CCF0CEF0D070D230D610E008E8207F
:4003C000EA05E208E620EE040263030404020508087309600A0C0C080D1C0FE1101F1260136314011518187F19401C5C1D1C1E231FE220032110240425FF280C29E72B1823
:400400002D24302C311F32103360340F364C378039803A223B223E044003454049FF4A074BFF4C404D204EF04F05500856025711580459045A045B045C115D105F0160401C
:4004400061A862406320801481108209840786088E108F0391409407961899099B10A11CA322A52CA60BA711A806A930AA09AB0CAD14B001B21EB560B71FB920BA08BE01BA
:40048000D804D904DC02DF010004028003820511060207140A100D240E4610281680172818201A901D101E61200821402210230125202605274128642B012D802E062F04C4
:4004C000310232103509375039813C023D203E4845084D015502560159015A025E20651067086D146E806F087508760A77288740900C9304950496939701988099049B1050
:400500009D809F05A008A110A382A4A0A520A606A708A808AA02AB20B002B220B420B542B604C0FDC2F4C476CAFFCCF5CEF9D040D620E6200010040C0506061109060C0978
:400540000E10102012031410160C18141B02201C2104220225082F01301F310632203308370139023E043F054004460449FF4A074BFF4C404D204EF04F0550085401560498
:40058000580459045A045B045C125D125F01604061A86240632082028380840E87C8880E8E06901091CA93349401951397E499139B6CA008A202A335A410A810AD03AF0408
:4005C000B002B20CB30FB401B5A8B610B7F0B808BBA8BE15C021C103C60CC7BEC834C9FFCAFFCBFFCEF0CF44D00CD401D604D804D904DA04DB04DC01DF01E6C0EA40EB02B5
:40060000000402400302068107140A930B040C080E80128014401514170119081A801D081E4520422204271529842B802E823020371538243C083D01404044244603471443
:40064000482050805240540856805701588259205A085E445F21620267808002810489088A808B208C0C8D208F01902C91159210930496029780988099849A019C64A00424
:40068000A2C0A382A4A1A508A602A701B184B510B680C0FDC23EC478CA9BCCE4CEC6D071D6FFD881E008E820EA053002338037283940CCF0CE10302095409F28A402A78041
:4006C000CC103E108402878095409F28A422A780CE20E210E61084208F20954096109F28A420E2400D105D02C201D6019D02B110EE048D0292019D02AE01E00287088A0294
:4007000096109F08A940E210EE20130216407B027E0286409F02A202A302AA10AB02B302C430DC80DE20E010EAA00C041108132016805A0178107F408A809201C204C40EBE
:40074000D602DE03E6047B0187408B019780A904AB20B014DC01E001E804EE0100070C070E0110071C0700FF010F03C00280000003000000021000005C08230073180C0031
:4007800000600000030000667F1900E21F4060000021630008FF0000041900E40CE700180100000110800F1F2C004C600002282800000100350201000600C0E028FFFFFFB2
:4007C00062A0F0410C0000000000021004040404000000010000000000004002001030100010101200000000000000000000000000000000A30000A0A3008300002000004A
:400800000020001000000000100020101000100000000000480080484800400000000000000000000000000000000000000000000000000000000000000000000000000090
:400840000000000000000000000000000000000000000000000000000000000000000000000000000000000000000000000000000000000000000000000000000000000078
:400880000000000000000000000000000000000000000000000000000000000000000000000000000000000000000000000000000000000000000000000000000000000038
:4008C00000000000000000000000000000000000000000000000000000000000000000000000000000000000000000000000000000000000000000000000000000000000F8
:4009000000000000000000000000000000000000000000000000000000000000000000000000000000000000000000000000000000000000000000000000000000000000B7
:0200000490006A
:0400000000004005B7
:0200000490105A
:04000000BC90ACAF55
:0200000490303A
:020000001C9052
:0200000490402A
:4000000000000000000000000000000000000000000000000000000000000000000000000000000000000000000000000000000000000000000000000000000000000000C0
:400040000000000000000000000000000000000000000000000000000000000000000000000000000000000000000000000000000000000000000000000000000000000080
:400080000000000000000000000000000000000000000000000000000000000000000000000000000000000000000000000000000000000000000000000000000000000040
:4000C0000000000000000000000000000000000000000000000000000000000000000000000000000000000000000000000000000000000000000000000000000000000000
:0200000490501A
:0C00000000012E16106900012E392CF9A9
:00000001FF